:020000040800F2
:1000000000500020ED0E0008DD0A0008DF0A00089D
:10001000E10A0008E30A0008E50A00080000000001
:10002000000000000000000000000000E70A0008D7
:10003000E90A000800000000EB0A0008ED0A0008C9
:10004000350F0008350F0008350F0008350F000880
:10005000350F0008350F0008350F0008350F000870
:10006000350F0008350F0008350F0008350F000860
:10007000350F0008350F0008350F0008350F000850
:10008000350F0008350F0008350F0008350F000840
:10009000F10A0008350F0008350F0008350F000879
:1000A000350F0008350F0008350F0008350F000820
:1000B000350F0008350F0008350F0008350F000810
:1000C000350F0008350F0008350F0008350F000800
:1000D000350F0008350F0008350F0008350F0008F0
:1000E000350F0008350F0008350F0008000000002C
:1000F0000000000000000000000000000000000000
:0C01000000000000000000005FF808F1A3
:10010C0010B5054C237833B9044B13B10448AFF345
:10011C0000800123237010BDD001002000000000DE
:10012C001C52000808B5034B1BB103490348AFF33D
:10013C00008008BD00000000D40100201C52000803
:10014C00034613F8012B002AFBD1181A013870470B
:10015C0080F0004002E000BF81F0004142001FBF70
:10016C005FEA410392EA030F7FEA226C7FEA236C79
:10017C006AD04FEA1262D2EB1363C1BFD21841406E
:10018C0048404140B8BF5B42192B88BF704710F004
:10019C00004F40F4000020F07F4018BF404211F0A7
:1001AC00004F41F4000121F07F4118BF494292EA0F
:1001BC00030F3FD0A2F1010241FA03FC10EB0C003B
:1001CC00C3F1200301FA03F100F0004302D54942C8
:1001DC0060EB4000B0F5000F13D3B0F1807F06D375
:1001EC0040084FEA310102F10102FE2A51D2B1F16D
:1001FC00004F40EBC25008BF20F0010040EA030062
:10020C007047490040EB0000013A28BFB0F5000FE1
:10021C00EDD2B0FA80FCACF1080CB2EB0C0200FA97
:10022C000CF0AABF00EBC25052421843BCBFD040E6
:10023C001843704792F0000F81F4000106BF80F460
:10024C0000000132013BB5E74FEA41037FEA226C23
:10025C0018BF7FEA236C21D092EA030F04D092F0EE
:10026C00000F08BF0846704790EA010F1CBF002022
:10027C00704712F07F4F04D1400028BF40F000407F
:10028C00704712F100723CBF00F50000704700F09F
:10029C00004343F0FE4040F4000070477FEA2262C6
:1002AC0016BF08467FEA23630146420206BF5FEA97
:1002BC00412390EA010F40F4800070474FF0000397
:1002CC0004E000BF10F0004348BF40425FEA000C5E
:1002DC0008BF704743F0964301464FF000001CE006
:1002EC0050EA010208BF70474FF000030AE000BF5C
:1002FC0050EA010208BF704711F0004302D540429A
:10030C0061EB41015FEA010C02BF8446014600200B
:10031C0043F0B64308BFA3F18053A3F50003BCFA26
:10032C008CF2083AA3EBC25310DB01FA02FC6344D3
:10033C0000FA02FCC2F12002BCF1004F20FA02F2DA
:10034C0043EB020008BF20F00100704702F12002CD
:10035C0001FA02FCC2F1200250EA4C0021FA02F22E
:10036C0043EB020008BF20EADC7070474FF0FF0C33
:10037C001CEAD0521EBF1CEAD15392EA0C0F93EA2E
:10038C000C0F6FD01A4480EA010C400218BF5FEAD0
:10039C0041211ED04FF0006343EA501043EA511143
:1003AC00A0FB01310CF00040B1F5000F3EBF49003D
:1003BC0041EAD3715B0040EA010062F17F02FD2A41
:1003CC001DD8B3F1004F40EBC25008BF20F0010024
:1003DC00704790F0000F0CF0004C08BF49024CEA3B
:1003EC00502040EA51207F3AC2BFD2F1FF0340EACD
:1003FC00C250704740F400004FF00003013A5DDC3E
:10040C0012F1190FDCBF00F000407047C2F100027E
:10041C00410021FA02F1C2F1200200FA02FC5FEA6B
:10042C00310040F1000053EA4C0308BF20EADC70B5
:10043C00704792F0000F00F0004C02BF400010F427
:10044C00000F013AF9D040EA0C0093F0000F01F0D4
:10045C00004C02BF490011F4000F013BF9D041EAF6
:10046C000C018FE70CEAD15392EA0C0F18BF93EAF8
:10047C000C0F0AD030F0004C18BF31F0004CD8D122
:10048C0080EA010000F00040704790F0000F17BFA9
:10049C0090F0004F084691F0000F91F0004F14D0EF
:1004AC0092EA0C0F01D142020FD193EA0C0F03D147
:1004BC004B0218BF084608D180EA010000F000404A
:1004CC0040F0FE4040F40000704740F0FE4040F425
:1004DC00400070474FF0FF0C1CEAD0521EBF1CEAC4
:1004EC00D15392EA0C0F93EA0C0F69D0A2EB0302E2
:1004FC0080EA010C49024FEA402037D04FF080537C
:10050C0043EA111143EA10130CF000408B4238BF40
:10051C005B0042F17D024FF4000C8B4224BF5B1A4E
:10052C0040EA0C00B3EB510F24BFA3EB510340EA9C
:10053C005C00B3EB910F24BFA3EB910340EA9C004A
:10054C00B3EBD10F24BFA3EBD10340EADC001B01BA
:10055C0018BF5FEA1C1CE0D1FD2A3FF650AF8B425E
:10056C0040EBC25008BF20F0010070470CF0004C6B
:10057C004CEA50207F32C2BFD2F1FF0340EAC25096
:10058C00704740F400004FF00003013A37E792F057
:10059C00000F00F0004C02BF400010F4000F013AB5
:1005AC00F9D040EA0C0093F0000F01F0004C02BFB0
:1005BC00490011F4000F013BF9D041EA0C0195E719
:1005CC000CEAD15392EA0C0F08D142027FF47DAFB2
:1005DC0093EA0C0F7FF470AF084676E793EA0C0FA2
:1005EC0004D14B023FF44CAF08466EE730F0004CA0
:1005FC0018BF31F0004CCAD130F000427FF45CAF30
:10060C0031F000437FF43CAF5FE700BF4FF0FF3C9D
:10061C0006E000BF4FF0010C02E000BF4FF0010CF0
:10062C004DF804CD4FEA40024FEA41037FEA226CB9
:10063C0018BF7FEA236C11D001B052EA530C18BFDB
:10064C0090EA010F58BFB2EB030088BFC81738BF40
:10065C006FEAE17018BF40F0010070477FEA226C2E
:10066C0002D15FEA402C05D17FEA236CE4D15FEA2A
:10067C00412CE1D05DF8040B704700BF844608465E
:10068C006146FFE70FB5FFF7C9FF002848BF10F11F
:10069C00000F0FBD4DF808EDFFF7F4FF0CBF012064
:1006AC0000205DF808FB00BF4DF808EDFFF7EAFFEE
:1006BC0034BF012000205DF808FB00BF4DF808EDA9
:1006CC00FFF7E0FF94BF012000205DF808FB00BF9E
:1006DC004DF808EDFFF7D2FF94BF012000205DF824
:1006EC0008FB00BF4DF808EDFFF7C8FF34BF012031
:1006FC0000205DF808FB00BF42000ED2B2F1FE4FA5
:10070C000BD34FF09E03B3EB126209D44FEA0023D4
:10071C0043F0004323FA02F070474FF0000070479B
:10072C0012F1610F01D1420202D14FF0FF3070473C
:10073C004FF00000704700BF10B594B01422002198
:10074C000CA804F0BBF8142200210DEB020004F0FD
:10075C00B5F81022002101A804F0B0F802244FF4DF
:10076C0080330122CDE91143CDE90A234FF4E01384
:10077C000AA80E92139302F059F808B172B6FEE76C
:10078C000F23CDE905344FF480630790CDE9083091
:10079C00214605A802F00CFA08B172B6FEE7122346
:1007AC0001934FF40043CDE9033001A802F0ACFAF9
:1007BC0008B172B6FEE714B010BD000080B500247D
:1007CC0001264FF4805803278EB000F0C1FDFFF7CF
:1007DC00B3FF102200210AA804F070F86A4B4FF402
:1007EC0080519A69694842F020029A619A69DFF84F
:1007FC00A09102F020020792079A9A6942F0040233
:10080C009A619A6902F004020892089A9A6942F075
:10081C0008029A619B69002203F008030993099B63
:10082C0001F086F959480AA9CDE90A86CDE90C47A9
:10083C0001F0AAF8574BCDE90A441A46C3F80090C8
:10084C009C601C731C754FF4602310460C94D36190
:10085C005460166100F09CFF08B172B6FEE7CDE95A
:10086C000A060AA94B480C9700F050FE08B172B664
:10087C00FEE74FF48273484CDFF820A1C4E9020074
:10088C00C4E900A34FF40073C4E906300A23C4E999
:10089C000400C4E90800A0622046E36202F0AEFB4B
:1008AC00054608B172B6FEE700F040FB49463948F0
:1008BC0000F03CF9642000F06FFD0421384800F092
:1008CC00E3FA284600F0B2F940F24E4241F25C29BC
:1008DC000292344A0346CDE9005233492A46334842
:1008EC0000F06EF96623324A314630480195CDF856
:1008FC00009000F090F95146204600F03BF942463A
:10090C0022492A4800F084F902236622CDE90053DB
:10091C0027494B46274800F063F94BF2987340F295
:10092C00BE22CDE900672449244800F059F9012181
:10093C001E4800F0E9F9022104461C4800F0E4F9D5
:10094C00032105461B4800F0DFF9032106461B482E
:10095C0000F0DAF9B0232238CDE903302246CDE994
:10096C000136059316490095164803F085FF154886
:10097C00FFF7E6FB81B2134800F030FB4FF4FA703E
:10098C0000F00AFDD3E700BF00100240000C01404C
:10099C0000240140E00300208803002000380040C0
:1009AC0014AE1F405653000800009643540200201A
:1009BC00F052000820020020A4570008EC0100208F
:1009CC00345200088802002072B6FEE70A4B82B04F
:1009DC009A6942F001029A619A6902F0010200924E
:1009EC00009ADA6942F08052DA61DB6903F08053D5
:1009FC000193019B02B070470010024010B50446F1
:100A0C0086B01022002102A803F058FF2268104B78
:100A1C009A421BD103F56C439A690E4842F400725A
:100A2C009A619A6902A902F400720092009A9A697A
:100A3C0042F004029A619B691F2203F004030193A4
:100A4C00019B0323CDE9022300F09EFF06B010BDED
:100A5C00002401400008014010B5044686B0102265
:100A6C00002102A803F02AFF2268174B9A4228D1D2
:100A7C0003F5EC33DA69154842F48042DA61DA693D
:100A8C0002A902F480420092009A9A6942F008028C
:100A9C009A619B694FF4204203F008030193019B78
:100AAC000223CDE902230323059300F06DFF4FF4DD
:100ABC00804100230548CDE9021302A9049300F0FC
:100ACC0063FF06B010BD00BF00380040000C0140B1
:100ADC00FEE7FEE7FEE7FEE7FEE77047704770476C
:100AEC0000F048BC014801F0B7B800BF5C1300200F
:100AFC000A4A0346106810B508B90948106009493C
:100B0C00094C0344091B8B4206D903F0F3FE0C235A
:100B1C0003604FF0FF3010BD1360FCE710040020A1
:100B2C00881700200050002000040000F0B4044698
:100B3C000F4E0F460FCC06F158050FC50FCC0FC545
:100B4C0094E80F0085E80F0000234FF46022336611
:100B5C0086F8643086F86C30C6F88C70B7657267AE
:100B6C00F365012306F15800B366F0BC00F010BE2B
:100B7C0014040020114B10B558220C46014618469F
:100B8C0003F0E4FE00224FF482710346C0E9011227
:100B9C00C0E90322C0F88840046042612021BDE80E
:100BAC0010404FF40070C3E908229A620A22C3E98C
:100BBC0006011846DA6202F021BA00BF14040020C4
:100BCC0010B50382039B029C8361BDF810308460D6
:100BDC00416143840AB14286012280F8302010BD65
:100BEC001FB542849DF81820436280F82820032307
:100BFC000122079C8161846001A90448CDE902238C
:100C0C00019400F083FC04B010BD00BF6C04002004
:100C1C00016082807047C2610384009A9DF80430A1
:100C2C00C160C26280F82930704700001FB50122F4
:100C3C00032301A901900B48CDE9022300F066FCC7
:100C4C00084800F01DFD6421064800F0B7FB05487C
:100C5C0000F058FC0446034800F018FEA0B204B0A3
:100C6C0010BD00BF6C0400202DE9F0410546C068A2
:100C7C00FFF7DCFFEE6A0746C6EB0630FFF71EFBFC
:100C8C0004463846FFF71AFB01462046FFF722FCC4
:100C9C0004463046FFF712FB01462046FFF75CFA8C
:100CAC0095F829600446D6B9B5F82080B7B2B84596
:100CBC0005D82046FFF720FDC0B2BDE8F081EB69F6
:100CCC0033F81600FFF7FEFA21460136FFF7F6FC63
:100CDC000028EBD03846FFF7F1FA0446E9E7012E7D
:100CEC00E7D10026B5F82080B7B2B845E1D9EB6959
:100CFC0033F81600FFF7E6FA21460136FFF7E8FC59
:100D0C000028F1D0E6E7000001292DE9F341044663
:100D1C000D4646D18068FFF789FFFFF7CFFA94F8AC
:100D2C00303005461BB92046FFF79EFF6086208AAF
:100D3C00FFF7C8FA01462846FFF70EFA4E4B196822
:100D4C00FFF714FB4D49FFF711FB4D49FFF7C2FBB1
:100D5C006169FFF7BFFB0546638EA76937F813007F
:100D6C00FFF7B0FA2946FFF7F9F9B4F822800546E7
:100D7C000024A6B2B0450DD937F81400FFF7A2FA3B
:100D8C0029460134FFF7A4FC0028F2D03046FFF7C7
:100D9C0095FA05462846FFF7AFFC80B202B0BDE8D5
:100DAC00F081022919D181880022006800F0C0FE70
:100DBC000A232A4601A9334802F074FA206801225A
:100DCC00A18800F0B5FEBDF804305BBA98B25B07A1
:100DDC004CBF4FF6FF704009E0E703294AD1806809
:100DEC00FFF724FF666A0746C6EB0630FFF766FA84
:100DFC0005463846FFF762FA01462846FFF76AFBBC
:100E0C0005463046FFF75AFA01462846FFF7A4F983
:100E1C0094F828600546CEB9B4F82280B7B2B8452C
:100E2C0004D82846FFF768FCC0B2B7E7A36933F8CB
:100E3C001600FFF747FA29460136FFF73FFC00285A
:100E4C00ECD03846FFF73AFA0546EAE7012EE8D12E
:100E5C000026B4F82280B7B2B845E2D9A36933F8BA
:100E6C001600FFF72FFA29460136FFF731FC002850
:100E7C00F1D0E6E7002091E700000020002474493F
:100E8C0000F07F4514040020F8B506460F460525F2
:100E9C0000243846FFF7CAFEFFF714FA0146204635
:100EAC00FFF75CF9013D0446642000F075FA15F07B
:100EBC00FF05EED107493046FFF758FA06490546BB
:100ECC002046FFF707FB01462846FFF703FB034BC1
:100EDC001860F8BD00F07F450000A0400000002025
:100EEC0000F010FA0B480C490C4A002302E0D458CD
:100EFC00C4500433C4188C42F9D3094A094C00235A
:100F0C0001E013600432A242FBD303F0F9FCFFF7BB
:100F1C0055FC704700000020D0010020B05A00089A
:100F2C00D001002084170020FEE7000008B5002245
:100F3C000E490F4803F0ECF808B1FFF745FD0D49D9
:100F4C000B4803F0FAF808B1FFF73EFD0A490848D0
:100F5C0003F09DF808B1FFF737FD054803F0F4F8EE
:100F6C0018B1BDE80840FFF72FBD08BD48000020B0
:100F7C00A40400203C010020040000200020704745
:100F8C000020704710B50C460A680146074803F06C
:100F9C009DFC23680024054A0548D4540122054BC6
:100FAC001A7003F0A2F8204610BD00BF0803002001
:100FBC00A40400206807002008B500220449054855
:100FCC0003F06CF80449034803F070F8002008BDE6
:100FDC0069070020A4040020510B002010B5094C17
:100FEC000A46D4F8B832D3F8143243B90146204635
:100FFC0003F054F82046BDE8104003F05DB8012022
:10100C0010BD00BFA4040020122301480B807047C0
:10101C0034000020042301480B807047300000206E
:10102C00002370B51E464D1C040FB0F1204F34BF89
:10103C003034373401F8134005F813600133DCB257
:10104C00A2424FEA0010EFD870BD00001A2310B571
:10105C000B800A4BD3F8E807D3F8F02780180AD096
:10106C00D3F8EC4706490822FFF7DAFF04222046A2
:10107C001031FFF7D5FF034810BD00BF00F0FF1F74
:10108C00160000201400002008B50A460248034947
:10109C0003F096FB014808BD7B5200083C0F002072
:1010AC0008B50A460248034903F08AFB014808BD0B
:1010BC008E5200083C0F002008B50A46024803492E
:1010CC0003F07EFB014808BDA45200083C0F002031
:1010DC0008B50A460248034903F072FB014808BDF3
:1010EC00AF5200083C0F002018B102280CBF0120A1
:1010FC000220704707B50E4B02689A4215D103F5D2
:10110C00DA33DA69142042F40002DA610022DB6976
:10111C00114603F400030193019B00F0E3FB142040
:10112C0003B05DF804EB00F00DBC03B000BD00BFD4
:10113C00005C004000F52671D0F8D40203F01DB815
:10114C00282303FB0103D0F8D402D3F8642103F065
:10115C0041B8282303FB0103D0F8D4025A6A03F0E8
:10116C0071B8D0F8D40203F006B910B583790446EF
:10117C00022B01D0FFF728FCD4F8D402012103F094
:10118C00E4F8D4F8D402BDE8104003F0B7B800007E
:10119C0010B50446D0F8D40203F0DAF8A37A23B1E0
:1011AC00024A136943F00603136110BD00ED00E021
:1011BC00D0F8D40203F0D5B810B51D4B04461D4829
:1011CC00036008230371022383710023C0F8D44207
:1011DC00C4F8C0024381037300F0AFFC08B1FFF701
:1011EC00F3FB002218231146D4F8C00201F005FBD2
:1011FC00582300228021D4F8C00201F0FEFAC0234B
:10120C0000228121D4F8C00201F0F7FA4FF4887360
:10121C0000220121D4F8C00201F0EFFA4FF48073E0
:10122C0000228221D4F8C00201F0E7FA002010BDA0
:10123C00005C00405C13002008B5D0F8C00200F040
:10124C00DFFCBDE80840FFF74FBF10B51446D0F8DF
:10125C00C0021A46234601F0D9F9BDE81040FFF749
:10126C0043BF08B5D0F8C00201F000FABDE8084051
:10127C00FFF73ABF08B5D0F8C00201F056FABDE846
:10128C000840FFF731BF08B5D0F8C00201F083FA6F
:10129C00BDE80840FFF728BF282211F0800FD0F8D6
:1012AC00C0321BBF01F07F0102FB013302FB013393
:1012BC00987C08BF93F85201704708B5D0F8C0026B
:1012CC0000F0B7FCBDE80840FFF70EBF08B5D0F83A
:1012DC00C00201F012FABDE80840FFF705BF08B5DF
:1012EC00D0F8C00201F0EAF9BDE80840FFF7FCBEF7
:1012FC00D0F8C00201F0F9B9004870473C11002049
:10130C00704770477047000038B50E4B05461A7889
:10131C004FF47A73B3FBF2F30B4A1068B0FBF3F0A3
:10132C0000F01EFB044658B90F2D09D80246294679
:10133C004FF0FF3000F0D6FA2046044B1D6038BD4C
:10134C000120FCE768000020640000206C000020F5
:10135C00074A08B51368032043F01003136000F02C
:10136C00AFFA0F20FFF7D0FFFFF730FB002008BDCE
:10137C0000200240034A044B11681B780B44136095
:10138C00704700BF3416002068000020014B18681D
:10139C00704700BF3416002038B50446FFF7F6FF3F
:1013AC000546631C1EBF044B1B78E418FFF7EEFFC9
:1013BC00431BA342FAD338BD68000020F7B50026C2
:1013CC0004460D460196FFF7E1FF236807469A682D
:1013DC00D10508D50120A36A84F8246043F02003CA
:1013EC00A36203B0F0BD5A68D20503D4DB6A13F4D0
:1013FC00700F3DD03D4B02201E6801F0FFFC2368AE
:10140C003B4A1969B6FBF0F611423A4A51D1D868F9
:10141C00394908424DD1196911425BD1DA68374B11
:10142C001A420CBF142329235E43019BB34223D2DF
:10143C006A1C04D0002D53D1019BB3420AD3019BEB
:10144C0001330193F1E76E1C13D065B923681B6857
:10145C0098070DD4A36A032043F00403A36200236E
:10146C0084F82430BDE7FFF791FFC01BA842EDD8EC
:10147C00226813689907E6D56FF01203226813608F
:10148C00A36A43F40073A362936803F46023B3F577
:10149C00602F0CD1237B53B9A36A23F48073A3620E
:1014AC00A36ADB0403D4A36A43F00103A362002004
:1014BC0097E71969114203D1D968104A11420BD030
:1014CC0019690F4A114209D1DB6813420CBF54232E
:1014DC00FC23A9E72923A7E75423A5E7FC23A3E7CB
:1014EC00FFF754FFC01BA842A6D8A8E76400002051
:1014FC0024499224922449122449920092244900AE
:10150C00499224000368D86C70470000002373B51F
:10151C00019390F824300446012B6CD0012380F801
:10152C0024304D680268062D086805EB850322D827
:10153C001F26556B053B9E4025EA060500FA03F372
:10154C002B43536309288B6800EB40054FF00701D0
:10155C0029D9D6681E3DA94026EA0101AB400B43B0
:10156C00D360A0F11003012B25D90020002384F8AF
:10157C00243002B070BD0C2D4FF01F0509D8166B2E
:10158C00233B9D4026EA050500FA03F32B43136326
:10159C00D8E7D66A413B9D4026EA050500FA03F3DD
:1015AC002B43D362CEE71069A94020EA0101AB407E
:1015BC000B431361D9E7114B9A4216D193681B0266
:1015CC00D3D49368102843F400039360CDD10C4B13
:1015DC000C4A1B68B3FBF2F30A2253430193019BA1
:1015EC00002BC2D0019B013BF8E7A36A012043F01A
:1015FC002003A362BAE70220BBE700BF002401402E
:10160C006400002040420F00002337B501930368AB
:10161C0004469A68D20702D5002003B030BD9A6800
:10162C0042F001029A60144B144A1B68B3FBF2F3AC
:10163C000193019BE3B9FFF7A9FE054623689B685C
:10164C00DB07E9D4FFF7A2FE401B0228F6D923687A
:10165C009B6813F00103F1D1A26A012042F0100241
:10166C00A262E26A84F8243042F00102E262D4E71A
:10167C00019B013BDCE700BF6400002040420F00EF
:10168C0010B590F824300446012B54D0012380F877
:10169C002430FFF7B9FF002849D1A36A274A23F465
:1016AC00407323F0010343F48073A36223689342D5
:1016BC0004D123494A6812F4702F2ED1A26A22F465
:1016CC008012A2625A68520541BFA26A22F44052AB
:1016DC0042F48052A262A26A12F480521CBFE26AE7
:1016EC0022F00602E262002284F824206FF002024B
:1016FC001A609A6802F46022B2F5602F13D10F4A77
:10170C00934205D1A2F58062526812F4702F0AD16F
:10171C009A6842F4A0029A6010BDA26A42F4801248
:10172C00A2624A68CFE79A6842F48012F3E700237A
:10173C0084F82430F0E70220EEE700BF00280140D7
:10174C000024014038B5036804469A68D10701D4D7
:10175C00002038BD9A6822F001029A60FFF716FE4D
:10176C00054623689B68DB07F2D5FFF70FFE401B8D
:10177C000228F6D923689B68DA07F2D5A36A012000
:10178C0043F01003A362E36A43F00103E362E0E772
:10179C00F8B5044600286DD0836A23B9C36280F87B
:1017AC002430FFF72BF92046FFF7CCFFA36A13F088
:1017BC00100361D100285FD1A26A616822F48852BB
:1017CC0022F0020242F00202E569A668A262227BC4
:1017DC002943B6F5807F41EA420136D0771E7D421F
:1017EC007D412D02277D012F06D182BBA269013AD2
:1017FC0045EA423242F400652268B6F5807F5768AC
:10180C0027F4694745EA0705556097681D4D05EAB9
:10181C00070545EA0105956001D0012E02D1236927
:10182C00013B1B05D56A25F470052B43D3629268E6
:10183C00154B1340994213D10023E362A36A23F0A2
:10184C00030343F00103A362F8BD3546CAE7A26A5D
:10185C0042F02002A262E26A42F00102E262CBE7AD
:10186C00A36A23F0120343F01003A362E36A43F06C
:10187C000103E3620120E7E7A36A43F01003A362CC
:10188C00F8E700BFFDF7E1FFFE0E1FFF10B590F863
:10189C0024300446012B11D0012380F82430FFF7AB
:1018AC0051FF38B9A36A23F4885323F0010343F0A2
:1018BC000103A362002384F8243010BD0220FCE74E
:1018CC0007490302CA6803F4E06322F4E0621204DD
:1018DC00120C134343F0BF6343F40033CB607047E7
:1018EC0000ED00E0154B30B5DC68C4F30224C4F104
:1018FC000703251D042B28BF0423062D4FF0FF35AD
:10190C0094BF0024033C05FA03F321EA0303A5402A
:10191C0022EA0502A340002843EA0203ACBF00F10F
:10192C006040074A4FEA0313DBB2ABBF00F56140DE
:10193C0000F00F0080F80033135430BD00ED00E0D0
:10194C0014ED00E0002807DB01234109034A00F0F5
:10195C001F00834042F82130704700BF00E100E0D7
:10196C000138B0F1807F0BD24FF0E023F021054A13
:10197C00586182F823100020072298611A61704781
:10198C000120704700ED00E02DE9F74F00244FF0E7
:10199C000F0E2646DFF884C1614B00F104080A687B
:1019AC0032FA06F502D103B0BDE8F08F012505FA35
:1019BC0006F702EA070537EA020276D14A68032ADB
:1019CC0007D8013A022A00F28380DFE802F09196F0
:1019DC009C00122A00F0948069D8112A00F08A80A9
:1019EC00FF2D94BF8146C1464FEA8602D9F800709C
:1019FC0088BF203A0EFA02FA27EA0A0704FA02F222
:101A0C001743C9F80070D1F8049019F0805F4CD0DE
:101A1C00DCF8182026F0030742F00102CCF818205D
:101A2C00DCF8182007F1804702F00102019207F55B
:101A3C00803706F0030A019A4FEA8A0ABA680EFA4E
:101A4C000AFB22EA0B0B374A904260D002F5806207
:101A5C0090425ED002F5806290425CD002F58062CA
:101A6C00904214BF0422032202FA0AF242EA0B0249
:101A7C00BA609A6819F4801F14BF2A43AA439A606B
:101A8C00DA6819F4001F14BF2A43AA43DA605A68B3
:101A9C0019F4003F14BF2A43AA435A601A6819F478
:101AAC00803F14BF2A43AA431A60013677E7DFF858
:101ABC0078904A450CD014D8A9F580194A4507D01E
:101ACC0009F570294A4503D0A9F580194A4587D1F3
:101ADC008A68D2B1012A4FF008040CBF0761476134
:101AEC007EE7DFF848904A45F2D009F58039EDE7FA
:101AFC00CC6875E7CC68043472E7CC6808346FE7BF
:101B0C00CC680C346CE700246AE7042468E70022F4
:101B1C00AAE70122A8E70222A6E700BF00100240B4
:101B2C0000040140000801400000221000003110A8
:101B3C000AB1016170470904FBE7F8B50446E0B14E
:101B4C0090F8913203F0FF021BB980F89022FFF756
:101B5C00D1FA032384F8913200232546637155F89A
:101B6C00040B01F052FC95E80E00206801F03DFCDE
:101B7C00014628B1022384F8913201252846F8BD8C
:101B8C00206801F04CFC0028F4D10246012726798C
:101B9C0004F11003C1B28E4203F1280318D80021BE
:101BAC000A4604F5A873C8B2864203F128031BD871
:101BBC0095E80E00206801F034FC05460028D9D1C8
:101BCC0001236073206884F8913201F0DFFED5E7C1
:101BDC0043E9062203F8277C03F8281C03F8252C7C
:101BEC0043F8102C0130D5E743E9062203F8272CE3
:101BFC0003F8280C03F8252C43F8102C0131D2E7FC
:101C0C0038B590F890320446012B10D0012580F89D
:101C1C009052006801F0F0FB29462046FFF771FB5B
:101C2C00206801F0B1FE002084F8900238BD02203B
:101C3C00FCE710B590F890220446012A0AD0012244
:101C4C00417380F89022006801F098FE002084F81F
:101C5C00900210BD0220FCE72DE9F04F044687B03E
:101C6C00006801F095FE10F4004500F025844FF05B
:101C7C002809C54E2068B0F84430190402D407B0C6
:101C8C00BDE8F08FB0F84470B9B217F00F0740F010
:101C9C00BF8011F0100126D103889BB2334043F46E
:101CAC0000430380B0F85030227C9BB203EBC2039C
:101CBC0000EB4303B3F80434626AC3F309031A4418
:101CCC00E36220466262FFF744FA637B002BD1D0BB
:101CDC00A26A002ACED1637B216843F08003A1F86D
:101CEC004C306273C6E70588ABB215F4006521D0A1
:101CFC00B0F8503094F850219BB203EBC20300EBC8
:101D0C004303B3F80C34B4F85621C3F30903C4F8F5
:101D1C006C3104F5267102F082F822682046138893
:101D2C0023F070031B051B0D43F080031380FFF79A
:101D3C0001FA9FE71B049DD5038823F070031B0554
:101D4C001B0D43F080030380B0F8503094F8502101
:101D5C009BB203EBC20300EB4303B3F80C34C3F3A5
:101D6C000903C4F86C318BB1D4F8641171B1B4F8B7
:101D7C00562102F054F8D4F86431D4F86C21294679
:101D8C0013442046C4F86431FFF7DAF921680A8855
:101D9C00170593B23FF56EAF03F44053B3F5405FB4
:101DAC003FF468AFB1F8502001F20C4092B2835A64
:101DBC00D4F86051C3F309033E2D83521DD9835AC5
:101DCC006F09ED0608BF07F1FF379BB243EA872383
:101DDC006FEA43436FEA53439BB283520B8823F45D
:101DEC00804323F070031B041B0C83F4405343F417
:101DFC00004343F080030B803CE7835A002DE7D06F
:101E0C0005F001079BB207EB550543EA8523E3E791
:101E1C0030F8273019041FFA83F840F1F38030F8BA
:101E2C00273009FB074223F070031B051B0D43F001
:101E3C00800320F8273092F85C5192F85031D2F898
:101E4C00641100F5806E95B9B0F85050ADB20635FE
:101E5C0005EBC3033EF81350C5F30905002D00F044
:101E6C00B6802B46B2F8562101F0D9FFAFE092F8BC
:101E7C005351022D40F08A8018F480450195B0F83A
:101E8C0050504FEAC30BADB2D2F868C108F0400A0B
:101E9C005D443CD002353EF81550C5F30905654547
:101EAC0014D94FF0000CC2F868C130F8232022F48A
:101EBC00804222F070021204120C82F4005242F49E
:101ECC00004242F0800220F8232006E0ACEB050C27
:101EDC00C2F868C1BCF1000FE7D0BAF1000F0DD009
:101EEC0030F8232022F4E04222F070021204120C8B
:101EFC0042F4004242F0C00220F82320002D66D0AC
:101F0C00282202FB07422B46B2F85821ACE70635D3
:101F1C003EF81550C5F30905654514D9DDF804C024
:101F2C00C2F868C130F8232022F4804222F07002FB
:101F3C001204120C82F4005242F4004242F080026D
:101F4C0020F8232006E0ACEB050CC2F868C1BCF10C
:101F5C00000FE7D0BAF1000F0DD130F8232022F496
:101F6C00E04222F070021204120C42F4004242F0E1
:101F7C00C00220F8232055B3282202FB07422B462F
:101F8C00B2F85A2170E700BF0F8FFFFF30F82350D3
:101F9C0025F4E04525F070052D042D0C45F4004585
:101FAC0045F0C00520F8235092F8505130F82530F8
:101FBC00ED0013F4804FB0F850309BB22B4452D04C
:101FCC0002333EF81350C5F30905002D9BD109FBD4
:101FDC0007F16318D3F86C212A44C3F86C21D3F8A9
:101FEC0064212A44C3F86421D3F868211AB1D3F8C8
:101FFC0060319D423FD209FB0743204693F85011B4
:10200C00FFF79EF818F0800F3FF434AE206809FB00
:10201C0007FC30F827309BB2334043F4004320F8E0
:10202C00273004EB0C03DA7C012A54D1002107FB86
:10203C000992A1501A7F82B318F040085A7C34D010
:10204C0002BBB0F850201B7C92B21B0100F2044082
:10205C0010441A5AC2F309021A521A5A92B242F492
:10206C0000421A5219E006333EF81350C5F3090525
:10207C00002DACD083E701F5A8712068214401F054
:10208C009DFCBFE7012A08D1B0F850201B7C92B20E
:10209C0000F204401B0110441952282303FB074390
:1020AC00197C2046FFF755F8E4E53AB9B0F8502012
:1020BC001B7C92B21B0100F20C40C9E7012AECD147
:1020CC00B0F850201B7C92B200F20C401B01104463
:1020DC0023F80080E1E7197CB0F850504FEAC10AB0
:1020EC00ADB218F4807B9A6A00F5806E554417D116
:1020FC0002353EF81550C5F30905954202D3C3F8D5
:10210C0028B0CEE7521B9A625A6A0CF110012A448D
:10211C005A62DA6A21442A44DA6201F04FFCA9E5DA
:10212C0018F0400C08F4804800F0E48002353EF8CA
:10213C0015501FFA88F8C5F3090595422CBF0022EB
:10214C00521B9A62002A55D1282303FB07435B7C60
:10215C00002B3DD1B0F8502000F2044592B20B0197
:10216C001544EA5AC2F30902EA52EA5A6FEA4242A9
:10217C006FEA524292B2EA52B0F8502000F20C4090
:10218C0092B21044C25AC2F30902C252C25A6FEA46
:10219C0042426FEA524292B2C2522046FEF7D9FF37
:1021AC00B8F1000F00F0E480282303FB07432268FA
:1021BC00197C32F8213023F4E04323F070031B0424
:1021CC001B0C43F4404343F0800322F82130CFE052
:1021DC00012BE2D1B0F850C000F204451FFA8CFC80
:1021EC0065440B01EA52B0F8505000F20C40ADB20D
:1021FC002844D1E7B8F1000F0DD030F8212022F49B
:10220C00E04222F070021204120C42F4404242F0FE
:10221C00800220F821204FF0280E0EFB074E9EF86E
:10222C003420012A40F0A480DEF8242002EB050CB7
:10223C00CEF824C0DA6A2A44DA62DEF83030DEF8EE
:10224C002020934231D39B1ACEF83030282303FB45
:10225C0007435D7C93B2002D41D1B0F850E000F201
:10226C0004451FFA8EFE7544090135F801E03E2A3B
:10227C00CEF3090E25F801E023D94FEA521ED206FF
:10228C006A5A08BF0EF1FF3E92B242EA8E226FEA02
:10229C0042426FEA524292B26A52282202FB074231
:1022AC00128B614601F07AFB62E01BB92A468EF86C
:1022BC003430CBE700228EF83420CEF830201A468A
:1022CC00C4E70AB96A5AE2E735F801E002F00108FE
:1022DC001FFA8EFE08EB52024EEA8222DBE7012D3A
:1022EC00DBD1B0F8505000F20442ADB22A440901DF
:1022FC005352D2E706353EF815501FFA88F8C5F34D
:10230C00090595428CBF6246521B9A62002A57D12E
:10231C00282303FB07435B7C002B3FD1B0F85020F4
:10232C0000F2044592B20B011544EA5AC2F30902B9
:10233C00EA52EA5A6FEA42426FEA524292B2EA52C7
:10234C00B0F8502000F20C4092B21044C25AC2F3C2
:10235C000902C252C25A6FEA42426FEA524292B228
:10236C00C2522046FEF7F5FEB8F1000F3FF41CAF49
:10237C00282303FB07472268397C32F8213023F4E9
:10238C00E04323F040031B041B0C83F0300343F4A5
:10239C00004343F0800322F821306BE4012BE0D1A1
:1023AC00B0F850C000F204451FFA8CFC65440B01D8
:1023BC00EA52B0F8505000F20C40ADB22844CFE7CE
:1023CC00B8F1000F0DD130F8212022F4E04222F0B8
:1023DC0070021204120C42F4404242F0800220F8C7
:1023EC0021204FF0280E0EFB074E9EF83420012AB8
:1023FC00BED1DEF8242002EB050CCEF824C0DA6A3C
:10240C002A44DA62DEF83030DEF8202093422ED3F4
:10241C009B1ACEF83030282303FB07435D7C93B224
:10242C00002D3ED1B0F850E000F20C451FFA8EFEA4
:10243C007544090135F801E03E2ACEF3090E25F862
:10244C0001E020D94FEA521ED2066A5A08BF0EF19B
:10245C00FF3E92B242EA8E226FEA42426FEA524249
:10246C0092B26A52282202FB0742528B19E71BB91F
:10247C002A468EF83430CEE70022CEF830208EF883
:10248C0034201A46C7E70AB96A5AE5E735F801E07D
:10249C0002F001081FFA8EFE08EB52024EEA82226D
:1024AC00DEE7012DDED1B0F8502000F20C4592B2DF
:1024BC0015440A01AB52D5E7420512D522682046D5
:1024CC00B2F8443023F480631B041B0CA2F8443094
:1024DC00FEF74BFE2946204607B0BDE8F04FFFF74C
:1024EC00A8BB43040AD52268B2F8443023F48043D5
:1024FC001B041B0CA2F84430FFF7C1BB870405D5A5
:10250C002268B2F8443023F40053F1E7C60419D51D
:10251C0022682046B2F8403023F004031B041B0C45
:10252C00A2F84030B2F8403023F008031B041B0C17
:10253C00A2F84030FEF73CFE2268B2F8443023F497
:10254C008053D5E7050548D5236802AD18462946C2
:10255C001A4603F1200632F8047B964221F8027BDE
:10256C00F9D1B3F8402092B242F00102A3F8402016
:10257C00B3F8402022F001021204120CA3F8402000
:10258C00B3F844205105FBD5B3F8442022F4806203
:10259C001204120CA3F8442035F8022B20F8042B5B
:1025AC008642F9D1B3F84020204692B242F008029C
:1025BC00A3F84020B3F8442022F400621204120C59
:1025CC00A3F84420B3F8402092B242F00402A3F8DE
:1025DC004020FEF7DDFDFFF752BB82050DD52268CA
:1025EC002046B2F8443023F400731B041B0CA2F8F1
:1025FC004430FEF7B6FDFFF742BBC3057FF53FAB9A
:10260C002268B2F8443023F4807371E770B5282443
:10261C00054601F00700444311F0800F14BF04F18C
:10262C00100104F5A87105EB040615BF0124002464
:10263C00747486F8514114BF49194919022BCB7097
:10264C0008BF0023087008BF0B710A6195F890321F
:10265C00012B09D00123286885F8903200F0F2FE96
:10266C00002085F8900270BD0220FCE7282301F0C1
:10267C000702534311F0800F10B5044618BF03F145
:10268C00100118440BBF03F5A8710123002309198D
:10269C000ABF0919437480F851310A7094F89032CA
:1026AC00012B09D00123206884F8903201F02AF81C
:1026BC00002084F8900210BD0220FCE770B528249D
:1026CC00002601F007014C43051985F8501185F8D7
:1026DC00516104F5A8710144C5E95923C5F86C6131
:1026EC00006801F06BF9304670BD282301F007013A
:1026FC0003FB0100D0F86C01704770B5282501F080
:10270C0007014D434419C4E9092301220026217411
:10271C0084F83420627405F1100101442363E662ED
:10272C00006801F04BF9304670BD38B5037901F003
:10273C000705AB4204462AD311F0800F4FF0280353
:10274C001CD001226B4303F11001034401445A7461
:10275C0001230D708B7094F890229A4219D0206846
:10276C0084F8903201F0A1F825B9206804F526719F
:10277C0001F012F9002084F8900238BD00224B437E
:10278C0003F5A8710344014483F85121E0E70120CB
:10279C00F3E70220F1E738B5027901F00F039A4212
:1027AC00044626D3282301F00702534311F0800F6F
:1027BC0014BF03F1100103F5A87118444FF0000584
:1027CC0015BF012300230919091914BF437480F89C
:1027DC0051318D700A7094F89032012B0BD001237B
:1027EC00206884F8903201F080F8284684F89052E2
:1027FC0038BD0120FCE70220FAE710B5282411F0BF
:10280C00800F1BBF01F0070104FB010004FB01005A
:10281C00103008BF00F5A87099B21AB90273C180C4
:10282C00002010BD012283600273F9E72DE9F3410A
:10283C00054638B30368DB0710D42B689F075ED4BA
:10284C002B68190700F195802B685A0700F1C1809D
:10285C00EB69002B40F02C81002029E0904C636840
:10286C0003F00C03042B07D0636803F00C03082B54
:10287C000AD16368DE0307D523689C03DDD56B683A
:10288C00002BDAD1012013E06B68B3F5803F12D135
:10289C00236843F480332360FEF778FD06462368F3
:1028AC009803CAD4FEF772FD801B6428F7D9032065
:1028BC0002B0BDE8F0819BB9236823F48033236018
:1028CC00236823F480232360FEF760FD064623680B
:1028DC009903B2D5FEF75AFD801B6428F7D9E6E7B9
:1028EC00B3F5A02F236803D143F480232360CFE7F3
:1028FC0023F480332360236823F48023CBE7684CD4
:10290C00636813F00C0F07D0636803F00C03082BFB
:10291C0010D16368DA030DD423689B0702D52B69A9
:10292C00012BAFD123686A6923F0F80343EAC20391
:10293C00236085E72A695B4B6AB101221A60FEF7B6
:10294C0025FD064623689F07ECD4FEF71FFD801B70
:10295C000228F7D9ABE71A60FEF718FD0646236884
:10296C0098077FF56DAFFEF711FD801B0228F6D995
:10297C009DE7AA694A4E4B4BE2B10122C3F8802471
:10298C00FEF704FD0446736A9B070DD54FF4FA520B
:10299C00454B1B68B3FBF2F3019300BF019B5A1E1E
:1029AC000192002BF9D14FE7FEF7F0FC001B022837
:1029BC00E9D97CE7C3F88024FEF7E8FC0446736A87
:1029CC009F077FF541AFFEF7E1FC001B0228F6D90B
:1029DC006DE7334CE369D80024D40127E36943F055
:1029EC008053E361E36903F080530093009B2F4E07
:1029FC003368D90518D5EB68012B26D1236A43F02F
:102A0C0001032362FEF7C2FC41F288380646236AB2
:102A1C009B073FD5002F3FF41BAFE36923F0805396
:102A2C00E36115E70027E2E7336843F48073336012
:102A3C00FEF7ACFC80463368DA05DCD4FEF7A6FC66
:102A4C00A0EB08006428F6D931E7ABB9236A41F250
:102A5C00883823F001032362236A23F004032362E2
:102A6C00FEF794FC0646236A9807D3D5FEF78EFC36
:102A7C00801B4045F7D91AE7052B236A03D143F095
:102A8C0004032362BAE723F001032362236A23F0D1
:102A9C000403B6E7FEF77AFC801B4045B7D906E77E
:102AAC000010024000004242640000200070004010
:102ABC002A4C626802F00C02082A3ED00022022B3B
:102ACC00274B1A662CD1FEF761FC06462368990148
:102ADC0020D42B6AB3F5803F05D16268A96822F433
:102AEC0000320A436260696A62680B4322F4741212
:102AFC001343012263601A4B1A66FEF747FC054626
:102B0C0023689A013FF5A8AEFEF740FC401B022853
:102B1C00F6D9CCE6FEF73AFC801B0228D6D9C6E6DD
:102B2C00FEF734FC054623689B017FF595AEFEF756
:102B3C002DFC401B0228F6D9B9E6012B3FF4A2AEBE
:102B4C0060682B6A00F480329A427FF49BAE6B6A09
:102B5C0000F47010C01A18BF0120A9E60010024042
:102B6C00000042420D4A536803F00C01082912D1AF
:102B7C000B48C3F38341DB03405C09D55368094A16
:102B8C00C3F340435043084AD35CB0FBF3F07047A7
:102B9C00064B584370470348704700BF0010024073
:102BAC007C5A000800127A007A5A000800093D008D
:102BBC002DE9F0410D46044610B90120BDE8F08125
:102BCC00444A136803F007038B4228D321688E070D
:102BDC0030D4CA0743D43F4A136803F00703AB420F
:102BEC0065D822683C4D12F0040F6CD1130706D542
:102BFC006B68226923F4605343EAC2036B60FFF7EE
:102C0C00B1FF6B68354AC3F30313D35CD840344B24
:102C1C001860344B1868FEF777FB0020CEE713687A
:102C2C0023F007030B431360136803F007038B4275
:102C3C00C3D1CBE7284B11F0040F1EBF5A6842F4E6
:102C4C00E0625A60080742BF5A6842F460525A6008
:102C5C005A68A06822F0F00202435A60B9E7626831
:102C6C001D4E012A33681AD113F4003FA5D07368A6
:102C7C0041F2883823F0030313437360FEF786FB9D
:102C8C0007467368626803F00C03B3EB820FA2D0A3
:102C9C00FEF77CFBC01B4045F3D903208EE7022ACC
:102CAC0002D113F0007FE1E713F0020FDEE71368A7
:102CBC0023F007032B431360136803F00703AB42A5
:102CCC007FF47BAF8DE76B68E16823F4E0630B4323
:102CDC006B608BE700200240001002406A5A00082B
:102CEC00640000206C000020044B054A5B68C3F3B1
:102CFC00C223D35C034A1068D840704700100240CE
:102D0C00625A00086400002003682DE9F34105466F
:102D1C00D80720D5364CE369D9002AD40126E369BB
:102D2C0043F08053E361E36903F080530193019B0B
:102D3C00304F3B68DA051ED5236A13F440732ED14D
:102D4C00236A6A6823F44073134323621EB1E36958
:102D5C0023F08053E3612A68910706D52449A868BB
:102D6C004B6823F4404303434B60D30637D4002015
:102D7C0012E00026DCE73B6843F480733B60FEF70F
:102D8C0005FB80463B68DB05D6D4FEF7FFFAA0EBCB
:102D9C0008006428F6D9032002B0BDE8F0816A6807
:102DAC0002F440729A42CBD00120134A236AC2F833
:102DBC004004002023F44071DF07C2F84004216274
:102DCC00BED5FEF7E3FA41F288380746236A980726
:102DDC00B6D4FEF7DBFAC01B4045F7D9DBE7044A53
:102DEC00E968536823F480030B435360BFE700BFCB
:102DFC00001002400070004000004242022808B55A
:102E0C0044D0102803D0012822D0002034E0254BD8
:102E1C005A68186810F080702ED0C2F38341224893
:102E2C00D20348BF5A68405C41BF2049C2F34042BC
:102E3C00895C1F4A5B684CBFB2FBF1F21D4A5B0216
:102E4C0002FB00F018D403234000B0FBF3F013E0B6
:102E5C0040F20231134A136A1940B1F5817F1ED03A
:102E6C0003F44073B3F5007F07D149F64040536A31
:102E7C0013F0020F08BF002008BDB3F5407FC4D18A
:102E8C0013684FF2244013F4003FF3E7FFF72CFFD5
:102E9C00044B5B68C3F3813301335B00D5E74FF41C
:102EAC000040E9E7001002408E5A00088C5A0008D6
:102EBC0000127A0000093D002DE9F3471F468946B0
:102ECC0090460446FEF762FA0A9D3D442D1AFEF721
:102EDC005DFA8246254B1E68C6F3CB366E430196CF
:102EEC002268936839EA03030CBF0123002343458E
:102EFC0001D100202EE07B1CF3D0FEF747FAA0EBAB
:102F0C000A00A84229D323685A6822F0E0025A60CA
:102F1C006268B2F5827F0AD1A268B2F5004F02D086
:102F2C00B2F5806F03D11A6822F040021A60A26ACF
:102F3C00B2F5005F07D11A6822F400521A601A68C1
:102F4C0042F400521A60012384F85130002303200C
:102F5C0084F8503002B0BDE8F087019A019B002A3A
:102F6C0003F1FF3308BF15460193B9E76400002055
:102F7C0073B50B4600920D461646022101220446FB
:102F8C00FFF79AFF024628B1636D032043F020033C
:102F9C00636507E02B46802120460096FFF78CFFE7
:102FAC000028F1D102B070BD37B50B46416804461C
:102FBC00B1F5827F18D18168B1F5004F02D0B1F51F
:102FCC00806F11D12568B1F5806F286820F0400022
:102FDC00286009D10092012100222046FFF76CFFE6
:102FEC0030B9002003B030BD009280210022F4E7FC
:102FFC00636D032043F020036365F3E710B50446CB
:10300C00002851D0436A002B4AD14268B2F5827F26
:10301C0000D0C3610023A36294F8513003F0FF0287
:10302C0023B9204684F85020FDF716FD02232268B0
:10303C0084F851301368A06823F040031360636870
:10304C0000F4044003F482730343E068A16900F4C4
:10305C0000600343206900F002000343606900F044
:10306C000100034301F400700343E069090C00F014
:10307C0038000343206A01F0040100F08000034390
:10308C00A06A00F40050034313605160D369002020
:10309C0023F40063D3610123606584F8513010BDC3
:1030AC000023C0E90433B5E70120F8E72DE9F74325
:1030BC0004460D4691461E46DDF82880FEF766F95B
:1030CC0094F851300746012B6268D9B20AD0B2F598
:1030DC00827F40F0E580A368002B40F0E18004295A
:1030EC0040F0DE80002D4BD0B9F1000F48D0002EFF
:1030FC0046D094F85030012B00F0D280012384F894
:10310C00503094F85130C4F83890042B1CBF052370
:10311C0084F8513000236365C4E910332368E687D3
:10312C00E6861968A687490658BF1968256358BFF3
:10313C0041F04001A68658BF1960E168B1F5006FF7
:10314C0055D10AB1012E07D135F8022BDA60E38E86
:10315C002563013B9BB2E3860125E38E9BB28BB9C1
:10316C00E38F9BB273B93A4641462046FFF700FF06
:10317C00002800F0818020236365002384F8503000
:10318C00012031E021688B689A070DD5E38E9BB244
:10319C0053B145B1236B33F8022BCA602363E38E22
:1031AC00013B9BB2E38600258A6812F001020CD029
:1031BC00E38F9BB24BB11546C968A36B23F8021B76
:1031CC00A363E38F013B9BB2E387FEF7DFF8C01BE1
:1031DC004045C2D3B8F1FF3FBFD0012384F8513032
:1031EC000023032084F8503003B0BDE8F0830AB10B
:1031FC00012E08D12A781A73236B01332363E38ED3
:10320C00013B9BB2E38601252DE0226893689B0766
:10321C000ED5E38E9BB25BB14DB1236B1B78137350
:10322C00236B01332363E38E013B9BB2E3860025C2
:10323C002268916811F001010DD0E38F9BB253B15C
:10324C000D46D268A36B1A70A36B0133A363E38F93
:10325C00013B9BB2E387FEF799F8C01B404502D3B4
:10326C00B8F1FF3FB9D1E38E9BB2002BCDD1E38FE8
:10327C009BB2002BC9D176E7A36833B901932368BD
:10328C00DA6801929B680193019B012384F8513009
:10329C000023606D84F85030C01A18BF0120A3E7DA
:1032AC000220A1E72DE9F7431E4690F85130044661
:1032BC00012B89461746DDB204D00225284603B0FF
:1032CC00BDE8F0834368B3F5827F0BD183684BB9BB
:1032DC00042380F85130134600960A46FFF7E6FEA9
:1032EC000546EBE7FEF752F88046B9F1000FE5D042
:1032FC00002FE3D094F85030012BDED001230025B1
:10330C0084F850300423A26884F85130B2F5004F91
:10331C006565C4E91055E7872368C4F83890A7871A
:10332C002563A586E58607D11A6822F040021A604B
:10333C001A6822F480421A601A6855065EBF1A6831
:10334C0042F040021A60E368F3B1E38F9BB2FBB129
:10335C0023689A68D2073CD5DA68A36B23F8022B52
:10336C00A363E38F013B9BB2E387EEE723689A6884
:10337C00D0071ED51B7BA26B1370A36B0133A36309
:10338C00E38F013B9BB2E387E38F9BB2002BEDD124
:10339C00424631462046FFF707FE18BB012384F84E
:1033AC0051300023656D84F85030ED1A18BF01259B
:1033BC0084E7FDF7EBFFA0EB0800B042E4D3711CEF
:1033CC00E2D0012384F851300023032584F85030D7
:1033DC0074E7FDF7DBFFA0EB0800B042B5D3731C1C
:1033EC00B3D0EEE720236365D8E784B004A800E9E6
:1033FC000E00002004B0704703464FF43F420020FB
:10340C00A3F84400A3F840207047B0F8403023F4F0
:10341C007C535B045B0CA0F840300020704700200C
:10342C0070471FB5044604A800E90E0000200123D4
:10343C00A4F84030A4F84000A4F84400A4F85000CC
:10344C0004B010BDF0B50A78CD7830F822400346B0
:10345C0024F4EC4424F070042404240C032D03D82D
:10346C00DFE805F041494745012048F280073C431D
:10347C0023F8224033F822409F4EA4B23440144328
:10348C003C4323F822400C7B03EB021C002C40F045
:10349C008C80CC884F78640864007FB3B3F85010EC
:1034AC0089B26144A1F8004433F822104C0609D5C6
:1034BC0033F8221089B2314041F4004141F0C0018F
:1034CC0023F8221033F822108C4C89B2012D01EA1A
:1034DC00040101D081F0200141F4004141F0800150
:1034EC0023F822104DE0284644F40074BDE744F460
:1034FC00C0640020B9E744F48064FAE7B3F8505094
:10350C00ADB26544A5F80844B3F85040A4B2644485
:10351C00B4F80C54C5F30905A4F80C540D693E2DF0
:10352C0030D9E906B4F80C144FEA551608BF06F169
:10353C00FF3689B241EA86216FEA41416FEA514177
:10354C0089B2A4F80C1433F822104F040DD533F8BB
:10355C00221021F4E04121F070010904090C41F41E
:10356C00404141F0800123F82210654CB2B91A8811
:10357C0092B2224082F4405242F4004242F0800265
:10358C001A80F0BDB4F80C14002DD5D005F001064E
:10359C0089B206EB550541EA8521D1E733F82210B3
:1035AC0089B2214081F4005196E7022D33F8224074
:1035BC005BD1A4B2344044F4014444F0800423F8B9
:1035CC002240B3F850400E89A4B2760864447600C9
:1035DC00A4F800644E89B3F850407608A4B2644451
:1035EC007600A4F808644978002948D133F82210F1
:1035FC004E040DD533F8221021F4E04121F0700176
:10360C000904090C41F4404141F0800123F82210D7
:10361C0033F822104D060DD533F8221021F4E04179
:10362C0021F070010904090C41F4004141F0C00182
:10363C0023F8221048F2800433F8221021F4804140
:10364C0021F070010904090C81F44051214323F845
:10365C00221033F8221021F4E04121F0400109043A
:10366C00090C0C4323F822408BE724F4E24424F0A9
:10367C0070042404240C274323F82270A1E733F8A8
:10368C0022104C040DD533F8221021F4E04121F026
:10369C0070010904090C41F4404141F0800123F808
:1036AC00221033F8221049060DD533F8221021F4DC
:1036BC00E04121F070010904090C41F4004141F092
:1036CC00C00123F8221033F822100C4C89B221408F
:1036DC00012D18BF81F0200141F4004141F080011F
:1036EC0023F8221033F8221021F4804121F07001CC
:1036FC000904090CF0E600BF8F8FFFFFBF8FFFFF9F
:10370C008FBFFFFF4A780B78097BD9BB0AB330F81F
:10371C00232051060DD530F8232022F4E04222F06C
:10372C0070021204120C42F4004242F0C00220F863
:10373C00232030F8232022F4E04222F0400212042D
:10374C00120C42F4004242F0800220F823200020A8
:10375C00704730F8232052040DD530F8232022F482
:10376C00E04222F070021204120C42F4404242F089
:10377C00800220F8232030F8232022F4804222F00B
:10378C007002DCE7002A4AD130F8232051040DD511
:10379C0030F8232022F4E04222F070021204120CC2
:1037AC0042F4404242F0800220F8232030F82320DB
:1037BC0052060DD530F8232022F4E04222F070029C
:1037CC001204120C42F4004242F0C00220F82320F2
:1037DC0048F2800130F8232022F4E04222F07002FB
:1037EC001204120C42F4004242F0C00220F82320D2
:1037FC0030F8232022F4804222F070021204120CC2
:10380C000A4320F8232030F8232022F4E04222F04F
:10381C0040021204120C114320F8231097E730F8E1
:10382C00232051040DD530F8232022F4E04222F05D
:10383C0070021204120C42F4404242F0800220F852
:10384C00232030F8232052060DD530F8232022F403
:10385C00E04222F070021204120C42F4004242F0D8
:10386C00C00220F8232048F2800130F8232022F4F3
:10387C00E04222F070021204120C42F4404242F078
:10388C00800220F8232030F8232022F4E04222F09A
:10389C0040021204120C0A4320F8232030F8232093
:1038AC0022F4804222F07002B3E74B780A788BB195
:1038BC0030F8223023F4E04323F040031B041B0CAC
:1038CC0083F0100343F4004343F0800320F82230CC
:1038DC000020704730F8223023F4804323F070032B
:1038EC001B041B0C83F48053ECE70B7B3BBB4B782A
:1038FC000A7833B330F822305B060DD530F822301D
:10390C0023F4E04323F070031B041B0C43F400432B
:10391C0043F0C00320F82230CB78012B0FD030F8C5
:10392C00223023F4E04323F040031B041B0C83F0F0
:10393C00200343F4004343F0800320F8223000209E
:10394C00704730F822305B040DD530F8223023F468
:10395C00E04323F070031B041B0C43F4404343F07F
:10396C00800320F8223030F8223023F4804323F0F7
:10397C0070031B041B0C83F44053DAE711B980234A
:10398C00A0F84C3000207047002070470020704792
:10399C00B0F8440080B270470020704700EB420042
:1039AC00013300F580605B0800EB8303834200D198
:1039BC00704731F8022B20F8042BF7E72DE9F0477C
:1039CC004B780446012B0D460A7B40F01581D1F84B
:1039DC0010908F6949694F4528BF4F460ABBBFB24B
:1039EC00EA883B46FFF7DAFFB4F85000297880B23A
:1039FC0004F20442090102448F522A7834F822302E
:103A0C0023F4E04323F040031B041B0C83F030032E
:103A1C00002043F4004343F0800324F82230BDE837
:103A2C00F087EB7895F800E0022B2E6A4FEA0E1C1B
:103A3C0040F0CD80B14530F82E2080F0B18022F4DA
:103A4C00E04222F070021204120C42F4014242F0E5
:103A5C00800220F82E2030F82E80B0F850E0F61BB3
:103A6C0018F040082E6201EB070ABBB21FFA8EFE5B
:103A7C004DD000F20C42724422F80C306A89FFF7E8
:103A8C008DFFB14536BFF31B00233E466A782B628F
:103A9C00C5F814A0B3B272BBB4F85020287892B217
:103AAC0004F2044100011144425A3E2EC2F30902B1
:103ABC00425215D9F206425A4FEA561708BF07F17F
:103ACC00FF3792B242EA87226FEA42426FEA5242D1
:103ADC0092B242522A8951462046FFF75FFF8CE78B
:103AEC00425A002EF0D006F0010792B207EB5606B0
:103AFC0042EA8622ECE7012AECD1B4F8500029788E
:103B0C0080B204F20442090102448B52E2E700F253
:103B1C000442724422F80C302A89FFF73FFFB1456A
:103B2C0036BFF31B43463E466A782B62C5F814A099
:103B3C00B3B24ABBB4F85020287892B204F20C41CC
:103B4C0000011144425A3E2EC2F30902425210D9CE
:103B5C00425A7709F60608BF07F1FF3792B242EADC
:103B6C0087226FEA42426FEA524292B242526A890B
:103B7C00B1E7425A002EF4D006F0010792B207EBDF
:103B8C00560642EA8622F0E7012AF0D1B4F850003A
:103B9C00297880B204F20C42090102448B52E6E708
:103BAC0022F4E24222F070021204120C42F400429F
:103BBC0042F0800220F82E20B0F8503000F204427F
:103BCC009BB21A44B3B222F80C302A8985E730F83C
:103BDC002E20F61B2E62B0F850605206BBB2B6B265
:103BEC0006D500F20C42324422F80C306A8974E794
:103BFC0000F204423244E6E7002A3BD18B690969A2
:103C0C00B0F850008B4284BF5A1A0B462978AA612F
:103C1C0080B204F20C4209010244885A3E2BC0F3D4
:103C2C00090088521AD95809DB068B5A08BF00F1D3
:103C3C00FF309BB243EA80236FEA43436FEA53435E
:103C4C009BB28B522A7834F8223023F4804323F031
:103C5C0070031B041B0C83F44053D9E60BB98B5A2D
:103C6C00EAE7885A03F0010680B206EB530340EAF8
:103C7C008323E5E7CA78022A70D1002B38D1B0F83B
:103C8C0050200B7892B200F204401B011044C25A2F
:103C9C00C2F30902C2520A693E2A44D9C15A5609D2
:103CAC00D70608BF06F1FF3689B241EA86216FEAD2
:103CBC0041416FEA514189B2C152B4F8500004F24B
:103CCC000C4180B20144C85A3E2AC0F30900C852C4
:103CDC0034D95009D606CA5A08BF00F1FF3092B247
:103CEC0042EA80226FEA42426FEA524292B2CA52D0
:103CFC00EB69002BA6D02A7834F82210480401F086
:103D0C00400327D5002B9DD034F8223023F4E04318
:103D1C0023F070031B041B0C43F4004343F0C0035B
:103D2C0024F822308EE7C15A002AC0D002F00106D6
:103D3C0089B206EB520641EA8621BCE70AB9CA5A97
:103D4C00D0E7C85A02F0010680B206EB520240EAF4
:103D5C008222CBE7002B7FF475AFD5E7012A5CD12B
:103D6C008A6909698A4294BF0020501AA86188BFE9
:103D7C000A46002B7FF466AFB4F850102B7889B24A
:103D8C0004F204401B010844C15A3E2AC1F3090144
:103D9C00C1522BD9D106C15A4FEA521608BF06F1AF
:103DAC00FF3689B241EA86216FEA41416FEA5141FF
:103DBC0089B2C152B4F8500004F20C4180B20144F3
:103DCC00C85A3E2AC0F30900C8521AD95009D20663
:103DDC00CA5A08BF00F1FF3092B242EA80226FEA61
:103DEC0042426FEA524292B2CA522BE7C15A002A9F
:103DFC00DAD002F0010689B206EB520641EA8621BE
:103E0C00D6E70AB9CA5AEAE7C85A02F0010680B2E4
:103E1C0006EB520240EA8222E5E70120FFE500EBC7
:103E2C004200F0B500F580605D0807460C462E4652
:103E3C00023436B9DB0744BF30F8253001F81530B1
:103E4C00F0BD37F8042B013E92B204F8022C120A92
:103E5C0004F8012CECE7D0F8BC3210B56BB1D0F8FB
:103E6C00B84294F80002FF2807D09B68214694F8CA
:103E7C0001229847FF2384F80032002010BD000077
:103E8C004323038000487047B40000204323038081
:103E9C0000487047F8000020432303800048704717
:103EAC00700000200A230380004870477401002032
:103EBC0038B50446D0F8B852FDF71AFAD4F8B8322F
:103ECC00C5F80C024BB1D4F8BC32D5F80402DB684F
:103EDC0005F503719847002038BD0220FCE7F8B5C2
:103EEC00D0F8B862CEB1142404FB0104E36983B1A9
:103EFC002827D0F8C02207FB0122126AB3FBF2F587
:103F0C0002FB15332BB91A46E361FDF7DFF90020EC
:103F1C00F8BD0023C6F81432F9E70220F8E70023B5
:103F2C00F7B50F788DF80530ADF8063017F0600353
:103F3C0004460D46D0F8B86222D0202B3AD1CA885C
:103F4C004B78BAB139060BD5D0F8BC1218468F682D
:103F5C003146B84731462046EA8800F04DFC06E071
:103F6C00314686F8003286F8012200F05AFC002017
:103F7C0003B0F0BDD0F8BC0284681846A047F6E741
:103F8C004B780A2B0AD00B2B10D09BB990F89C3293
:103F9C00032B0FD102220DF10601DEE790F89C32C3
:103FAC00032B07D101220DF10501D6E790F89C32C5
:103FBC00032BDCD02046294600F0F7FB0220D7E784
:103FCC0038B5044600258121FDF74BF90121204627
:103FDC00E562FDF746F982212046C4F86C51FDF7E5
:103FEC0040F9D4F8B83225644BB1D4F8BC325B68D4
:103FFC009847D4F8B802FDF783F9C4F8B8520020FA
:10400C0038BD70B5037C0446A3BB4FF4007381210B
:10401C000222FDF71AF901214FF40073E162012528
:10402C0002222046FDF711F90823032282212046A3
:10403C00C4F86C51FDF709F94FF407702564FDF7CE
:10404C005BF90646C4F8B802F8B1D4F8BC321B6868
:10405C0098470023C6F81432C6F81832237CD6F8D9
:10406C00042283B94FF4007329462046FDF737F933
:10407C00002070BD402381210222FDF7E6F80121CA
:10408C004023E162CBE74023EEE72846F1E719B184
:10409C00C0F8BC120020704702207047D0F8B8322C
:1040AC000020C3F80812C3F810227047D0F8B832B9
:1040BC000020C3F804127047D0F8B82210B582B1B2
:1040CC00D2F81442012374B9C2F81432D2F8103267
:1040DC0081210363D2F808229BB2FDF7F7F8204642
:1040EC0010BD0220FCE71846FAE7D0F8B82208B554
:1040FC0062B1037CD2F8042233B94FF4007301216E
:10410C00FDF7EDF8002008BD4023F8E70220FAE7A0
:10411C0008B580B1D0F8B43213B10023C0F8B43272
:10412C0009B1C0F8B0120123027080F89C32FDF77F
:10413C0043F8002008BD0220FCE719B1C0F8B41206
:10414C00002070470220704708B5FDF775F8002075
:10415C0008BD08B5D0F8B43233B11B6898470038A5
:10416C0018BF0120400008BD0220FCE708B5D0F8BC
:10417C00B4325B689847002008BD38B500F52A7545
:10418C000446284600F006FB012394F8A812C4F854
:10419C009432B4F8AE32C4F8983201F01F03012BFC
:1041AC0008D0022B0BD07BB92946204600F0FAF838
:1041BC00002038BD2946204600F03CFAF8E7294695
:1041CC00204600F05BFAF3E7204601F08001FDF792
:1041DC0051F8EDE770B50446164639BBD0F8942279
:1041EC00032A1CD1D0E958539D420BD9ED1AAB428E
:1041FC0028BF2B463146C0F860519AB200F01EFB26
:10420C00002070BDD0F8B4321B6923B190F89C2209
:10421C00032A00D19847204600F018FBF0E7052A46
:10422C00EED1C4F89412FDF725F8E9E7D0F8B432D2
:10423C009B692BB190F89C22032A01D19847DFE7A8
:10424C000220DEE7F8B5044613460F46002949D193
:10425C00D0F89422022A3AD1D0E90856B54211D9A5
:10426C00AD1B19460562AAB200F0D3FA3B461A46BA
:10427C0019462046FDF733F894F8A032012B2DD0C7
:10428C000020F8BDC369B3FBF6F506FB153565B91F
:10429C009E420AD8D0F89822934206D22A4600F0C1
:1042AC00B8FA2B46C4F89852E1E7D4F8B432DB687C
:1042BC002BB194F89C22032A01D1204698478021E7
:1042CC002046FCF7D7FF204600F0CBFAD4E732F0BB
:1042DC000403D1D18021FCF7CDFFCDE7002384F876
:1042EC00A032CDE7D0F8B4325B692BB190F89C22A8
:1042FC00032A01D19847C3E70220C2E7002270B518
:10430C0004460125402611464023FCF79EFF334608
:10431C00802100222046C4F85851C4F86461FCF78F
:10432C0094FF0021D4F8B832A561666284F89C52DF
:10433C00C4F894126160C4F8A41223B1D4F8B43256
:10434C0020465B689847002070BD017400207047C0
:10435C0090F89C3280F89D32042380F89C32002027
:10436C00704790F89C32042B04BF90F89D3280F873
:10437C009C320020704708B590F89C22032A04D187
:10438C00D0F8B432DB6903B19847002008BD10B5F2
:10439C0004468021FCF76EFF2046BDE8104000214A
:1043AC00FCF768BF37B50B78044603F06003202B8D
:1043BC000D4606D0402B04D063B12046FFF7E7FF33
:1043CC0005E0D4F8B432294620469B689847002073
:1043DC0003B030BD4B78092BEFD801A252F823F073
:1043EC00EF45000825460008C7430008174600089B
:1043FC00C74300081545000815440008C7430008CA
:10440C00BF450008574500080023ADF806304B881F
:10441C001A0A013A062AD0D801A151F822F000BF9D
:10442C00494400086D44000887440008C74300084D
:10443C00C7430008CB440008E1440008D0F8B03270
:10444C001B68207C0DF106019847BDF80620002A58
:10445C0055D0EB88002B49D1204600F0F7F9B6E790
:10446C00027CD0F8B43232B99B6A0DF10600984741
:10447C0002234370E9E7DB6AF7E7DBB2052B9CD834
:10448C00DFE803F003090D111519D0F8B0325B68A1
:10449C00002BD6D191E7D0F8B0329B68F8E7D0F872
:1044AC00B032DB68F4E7D0F8B0321B69F0E7D0F833
:1044BC00B0325B69ECE7D0F8B0329B69E8E7037C7B
:1044CC00002B7FF47AAFD0F8B4320DF106005B6BA1
:1044DC009847BAE7037C002B7FF46FAFD0F8B43267
:1044EC000DF106001B6B98470723C2E79A4228BFC1
:1044FC001A4601462046ADF8062000F07DF9EB88FF
:10450C00002B7FF464AFA7E78B88002B7FF455AFAB
:10451C00CB88002B7FF451AF4D887F2D3FF64DAFEC
:10452C0090F89C32032B3FF448AFEDB2294680F84B
:10453C009E52FCF7C2FE204600F088F91DB1022302
:10454C0084F89C3243E70123FAE78978384D012936
:10455C0029703FF632AF90F89C32022B08D0032B17
:10456C0015D0FFF714FF20462978FFF7FFFD2EE743
:10457C0000293FF471AF01210323416080F89C3284
:10458C002046FFF7E6FD02287FF466AF15E731B948
:10459C000223416080F89C32FFF7E8FD5CE741683C
:1045AC0001293FF459AFC9B2FFF7E0FD29786160EA
:1045BC00E6E7CA88012A7FF400AF90F89C32022B00
:1045CC000AD8002B3FF4F9AE0146002341F8083F0E
:1045DC00204600F011F9FAE6032B7FF4EEAE011D34
:1045EC00F6E790F89C32013B022B3FF6E6AECA8808
:1045FC00022A7FF4E2AED0F8A4320146002B0CBFA5
:10460C000123032341F80C3FE2E74B88012B7FF495
:10461C00DEAEC4F8A4321FE790F89C32013B022BAB
:10462C003FF6CBAE4B88012B7FF4D1AE0023F0E7E5
:10463C003816002038B50B78044603F060025B0690
:10464C000D4601D5402A15D194F89C32013B022B22
:10465C0010D82B79012B0DD8D4F8B43229469B688D
:10466C0020469847EB881BB910B9204600F0EEF8AD
:10467C00002038BD2046FFF78AFEF9E738B50A78E6
:10468C00044602F06002202A0B4606D0402A04D0D1
:10469C005AB12046FFF77BFE05E0D4F8B422194648
:1046AC00204692689047002038BD5A788D88012AA0
:1046BC00097935D0032A21D0002AEAD190F89C320E
:1046CC00022B44D0032BE4D1142201F00F0315F07C
:1046DC00800F02FB03034BD09B69002BD9D0142510
:1046EC0001F07F0303FB0555802905444BD0204680
:1046FC00FCF7D2FD00284BD0012345E090F89C221A
:10470C00022A1BD0032AC4D15A882AB94A0603D0DC
:10471C00DB880BB9FCF7AEFD204600F097F8C2E73A
:10472C0090F89C22022A09D0032AB2D15B88002B74
:10473C00B9D14D06F0D0FCF7A6FDEDE74B06A8D09D
:10474C00FCF798FD80212046FCF794FDABE74A0668
:10475C009FD12B064FF000034FF002024CBF00F12B
:10476C00140100F5AA710B60204600F045F89AE799
:10477C00D3F85831002B8CD0142505FB010505F519
:10478C00AA750029B3D100232B6002222946EBE73E
:10479C002860FAE70B7803704B7843704B884380A2
:1047AC008B888380CB88C380704710B504468021EA
:1047BC00FCF760FD2046BDE810400021FCF75ABD17
:1047CC0070B50D461646044670B1FBF7B9FCC3B282
:1047DC0001335B0033802B70032300206B700223AA
:1047EC00013C14F8011F01B970BD5A1CE954D2B236
:1047FC000233DBB2A854F4E71346022210B5C0E929
:10480C000733C0F894220A460021FCF75FFD002014
:10481C0010BD08B513460A460021FCF757FD0020D1
:10482C0008BD1346032210B5C0E95733C0F89422D3
:10483C000A460021FCF753FD002010BD08B51346B5
:10484C000A460021FCF74BFD002008BD08B50423E7
:10485C00C0F8943200231A461946FCF737FD0020A5
:10486C0008BD08B50523C0F8943200231A46194632
:10487C00FCF735FD002008BD0EB46FF0004110B5FB
:10488C0000249DB01FAB029006900791049109483B
:10489C00094953F8042B0591006802A901931B9454
:1048AC0000F0B8F9029B1C701DB0BDE8104003B0BD
:1048BC00704700BF800100200802FFFF034602443E
:1048CC00934200D1704703F8011BF9E7034610B57A
:1048DC00013932B111F8014F013A03F8014B002CA8
:1048EC00F7D100211A44934200D110BD03F8011BEB
:1048FC00F9E70000014B1868704700BF80010020E9
:10490C0070B500260C4D0D4B5B1B9C10A64209D1BB
:10491C00002600F07DFC0A4D0A4B5B1B9C10A64246
:10492C0005D170BD55F8043B98470136EEE755F8B4
:10493C00043B98470136F2E7A85A0008A85A000829
:10494C00A85A0008AC5A0008704770470A449142B4
:10495C0000F1FF3300D1704710B511F8014B9142B3
:10496C0003F8014FF9D110BD38B50546002940D0E8
:10497C0051F8043C0C1F002BB8BFE41800F0DEF813
:10498C001C4A136833B9636014602846BDE838408C
:10499C0000F0DAB8A34208D9206821188B4201BF75
:1049AC0019685B6809182160EDE71A465B680BB162
:1049BC00A342FAD911685018A0420BD120680144C7
:1049CC00501883421160E0D118685B68084410608D
:1049DC005360DAE702D90C232B60D6E72068211844
:1049EC008B4201BF19685B680918216063605460D1
:1049FC00CBE738BD8017002070B50F4E0C463168E0
:104A0C00054611B900F0B0FB30602146284600F095
:104A1C00ABFB431C03D14FF0FF34204670BDC41CCC
:104A2C0024F00304A042F8D0211A284600F09CFB85
:104A3C000130F2D1EFE700BF7C1700202DE9F843DD
:104A4C00CD1C25F0030508350C2D38BF0C25002D89
:104A5C00064601DBA94204D90C2333600020BDE8D3
:104A6C00F883DFF8D48000F069F8D8F800301C46E1
:104A7C0044BB29463046FFF7BFFF431C044658D1C0
:104A8C00D8F800402746002F43D1002C4BD0236888
:104A9C003946304604EB030900F066FB814542D1F0
:104AAC00216830466D1A2946FFF7A6FF01303AD02F
:104ABC0023682B442360D8F800305A6862BBC8F8CE
:104ACC0000700FE02268521B20D40B2A17D96119F1
:104ADC00A342256018BF5960636808BFC8F800106E
:104AEC0062514B60304600F02FF804F10B00231D8F
:104AFC0020F00700C21A1CBF1B1AA350AFE7626854
:104B0C00A3420CBFC8F800205A60EBE72346646848
:104B1C00AEE73C467F68B6E71A465B68A342FBD11A
:104B2C0000235360DEE70C233046336000F00CF8B2
:104B3C0094E70560D6E700BF801700200148FFF717
:104B4C0003BF00BF781700200148FFF7FEBE00BF6F
:104B5C00781700202DE9F0471F468E688246BE422A
:104B6C000C469046334653D8B1F90C0010F4906FB4
:104B7C002BD065692368096905EB4505A3EB010991
:104B8C0005EBD5757B1C6D104B44AB422A4684BF9C
:104B9C001D462A46430527D511465046FFF74EFFC2
:104BAC00064658B34A462169FFF7D0FEA38923F481
:104BBC00906343F08003A38126614E4426603B46FC
:104BCC003E466561A5EB0905A5601F463A46414680
:104BDC00206800F0AFFA0020A3689B1BA360236839
:104BEC003B442360BDE8F087504600F0DBFA0646F4
:104BFC000028E1D150462169FFF7B6FE0C23CAF814
:104C0C000030A3894FF0FF3043F04003A381E9E764
:104C1C003E46DBE72DE9F0471F468B8906461B060F
:104C2C000D4614469CB010D50B6973B94021FFF7A3
:104C3C0005FF2860286130B90C2333604FF0FF303A
:104C4C001CB0BDE8F08740236B610023099320233F
:104C5C008DF8293030234FF001080397644F8DF8FD
:104C6C002A302346994613F8012B0AB1252AF9D18B
:104C7C00B9EB040A0BD05346224629463046FFF7BF
:104C8C0069FF013000F0A480099A5244099299F806
:104C9C000030002B00F09C8000234FF0FF32CDE958
:104CAC00052309F10109049307938DF853301A93E6
:104CBC004C46052214F8011B4D4800F065FA049B84
:104CCC00D0B9D80644BF20228DF85320190744BF11
:104CDC002B228DF8532099F800202A2A13D04C4609
:104CEC0000204FF00A0C079A214611F8013B303B8B
:104CFC00092B49D968B913E0C01B08FA00F0184316
:104D0C00A1460490D4E7039A111D12680391002A5E
:104D1C0001DB079204E0524243F002030792049332
:104D2C0023782E2B0AD163782A2B32D1039B0234A1
:104D3C001A1D1B68039243EAE3730593DFF8B490E2
:104D4C0003224846217800F01FFA38B14022049B18
:104D5C00A0EB0900824013430134049314F8011BA7
:104D6C00062225488DF8281000F00EFA002835D0C0
:104D7C00224818BB039B073323F007030833039324
:104D8C00099B034409936CE70C4601200CFB02328F
:104D9C00AAE700234FF00A0C19460134059320466C
:104DAC0010F8012B303A092A03D9002BC6D00591F3
:104DBC00C4E7044601230CFB0121F0E703AB00938D
:104DCC002A4630460E4B04A9AFF30080421CD7D1C3
:104DDC00AB895B063FF532AF099831E703AB009323
:104DEC002A463046064B04A900F07EF8EEE700BFD9
:104DFC00BD520008C3520008C75200080000000052
:104E0C00614B00082DE9F047164698468A680B69F5
:104E1C0007469342B8BF1346336091F843200C46C3
:104E2C00DDF820900AB1013333602368990642BF44
:104E3C00336802333360256815F0060506D104F19A
:104E4C00190AE36832689B1AAB422BDC94F84330A6
:104E5C002268003B18BF0123920630D441463846E5
:104E6C0004F14302C847013023D02368226903F0C0
:104E7C000603042B14BF002533684FF0000608BF4F
:104E8C00E56804F11A0408BFED1A54F8123C08BF87
:104E9C0025EAE5759342C4BF9B1AED18B5421AD1A9
:104EAC00002008E00123524641463846C8470130ED
:104EBC0003D14FF0FF30BDE8F0870135C1E730205A
:104ECC00E11881F843005A1C94F84510224402332F
:104EDC0082F84310C2E70123224641463846C847B0
:104EEC000130E6D00136D9E72DE9F0430D7E85B0CF
:104EFC00782D904607460C4699460C9E01F14302CC
:104F0C0007D8622D0AD8002D00F0D780582D00F05C
:104F1C00BC8004F1420684F842503BE0A5F16303E7
:104F2C00152BF6D801A151F823F000BF914F0008C2
:104F3C00A54F00081F4F00081F4F00081F4F000807
:104F4C001F4F0008A54F00081F4F00081F4F0008F7
:104F5C001F4F00081F4F0008AD500008CF4F00082E
:104F6C005F5000081F4F00081F4F0008CF5000086B
:104F7C001F4F0008CF4F00081F4F00081F4F00089D
:104F8C006750000833681A1D1B68326004F1420632
:104F9C0084F842300123A1E033682068191D316088
:104FAC00060601D51D6803E04506FBD5B3F9005094
:104FBC00002D03DA2D236D4284F843300A235B481D
:104FCC0011E021683368080653F8045B02D44906E3
:104FDC0048BFADB23360237E54486F2B5CD108239D
:104FEC00002184F843106668002EA66005DB21685A
:104FFC002E4321F00401216050D01646B5FBF3F18D
:10500C0003FB115C10F80CC006F801CDAC466345EF
:10501C000D46F3D9082B0BD12368DB0708D5236980
:10502C0061689942DEBF302306F8013C06F1FF3679
:10503C00921B2261434621463846CDF8009003AAC4
:10504C00FFF7E0FE01304ED14FF0FF3005B0BDE868
:10505C00F083236843F0200323607825344884F8D8
:10506C0045502368316813F0800F51F8045B03D16D
:10507C0013F0400F18BFADB23160D90744BF43F0F5
:10508C00200323601DB11023AAE72848E7E7236813
:10509C0023F020032360F6E70A23A1E71646B9E7BD
:1050AC0033682568181D616930602E061B6801D5B0
:1050BC00196002E06806FBD51980002316462361AF
:1050CC00B8E7336800211A1D32601E6862683046EA
:1050DC0000F05AF808B1801B6060636823610023FC
:1050EC0084F84330A6E73246414638462369C84720
:1050FC000130A9D023689B0713D4E068039B984226
:10510C00B8BF1846A2E70123324641463846C84785
:10511C00013099D00135E36803995B1AAB42F2DC9C
:10512C00EBE7002504F11906F5E700BFCE520008A5
:10513C00DF520008884210B501EB020402D9844208
:10514C00234607D8431EA14207D011F8012B03F8C0
:10515C00012FF8E70244824200D110BD13F8011D63
:10516C0002F8011DF7E7000038B50023054D044691
:10517C0008462B60FBF7BCFC431C02D12B6803B127
:10518C00236038BD74170020034610B5C9B2024421
:10519C009342184601D1002003E0047801338C427D
:1051AC00F6D110BD2DE9F041074614460D4621B944
:1051BC001146BDE8F041FFF741BC2AB9FFF7D4FB1B
:1051CC0025462846BDE8F08100F01AF884420646D0
:1051DC0002D8B4EB500FF4D821463846FFF72EFC1A
:1051EC00804608B94546ECE7B4422246294628BF1A
:1051FC003246FFF7ABFB29463846FFF7B5FBF1E724
:10520C0051F8043C181F002BBCBF0B58C01870473A
:10521C00F8B500BFF8BC08BC9E467047F8B500BF97
:08522C00F8BC08BC9E46704767
:1052340054656D70657261747572652025642563AB
:10524400432020207C2020204D41583636373520FD
:1052540025642563432020207C2020204E544320B5
:1052640025642563432020207C20202050544320A3
:1052740025642563430D0053544D6963726F656C57
:10528400656374726F6E6963730053544D333220D7
:105294005669727475616C20436F6D506F7274003F
:1052A40043444320436F6E66696700434443204987
:1052B4006E7465726661636500232D302B2000686F
:1052C4006C4C0065666745464700303132333435EF
:1052D400363738394142434445460030313233345D
:1052E400353637383961626364656600E67F8979EB
:1052F4008873DB6D7E686B639F5E165ACB55BA511B
:10530400E04D3B4AC64680436540733DA83A0238A7
:105314007D351A33D530AD2EA02CAD2AD3281027D5
:105324006325CB234622D420741F231EE31CB21B07
:10533400901A7A197218751785169F15C314F113EC
:1053440029136A12B31104115D10BD0F240F910EBD
:10535400050E000027004F0077009E00C600EE00F7
:1053640015013D0165018D01B501DD0105022D0227
:1053740055027D02A502CE02F6021E0346036F0308
:105384009703C003E8031104390462048B04B304D3
:10539400DC0405052E0556057F05A805D105FA058B
:1053A40023064C0675069E06C706F0061907420733
:1053B4006B079507BE07E70710083A0863088C08CF
:1053C400B608DF08080932095B098409AE09D70960
:1053D400010A2A0A540A7D0AA70AD00AFA0A230BE8
:1053E4004D0B760BA00BC90BF30B1C0C460C700C6D
:1053F400990CC30CEC0C160D3F0D690D920DBC0DF0
:10540400E50D0F0E380E620E8B0EB50EDE0E080F74
:10541400310F5B0F840FAD0FD70F00102A105310FC
:105424007C10A610CF10F81021114B1174119D118E
:10543400C611EF11191242126B129412BD12E61228
:105444000F13381361138A13B313DC1304142D14CC
:1054540056147F14A814D014F91422154A15731580
:105464009C15C415ED1515163E1667168F16B7163E
:10547400E0160817311759178117AA17D217FA1708
:1054840023184B1873189B18C318EC1814193C19DB
:1054940064198C19B419DC19041A2D1A551A7D1AB9
:1054A400A51ACD1AF51A1D1B451B6D1B941BBC1B9D
:1054B400E41B0C1C341C5C1C841CAC1CD41CFC1C89
:1054C400241D4C1D741D9B1DC31DEB1D131E3B1E73
:1054D400631E8B1EB31EDB1E031F2B1F531F7B1F5C
:1054E400A31FCA1FF21F1A2042206A209220BA204A
:1054F400E2200A2133215B218321AB21D321FB212B
:1055040023224B2273229C22C422EC2214233C2308
:1055140065238D23B523DD2306242E2456247F24DE
:10552400A724CF24F8242025492571259A25C225AE
:10553400EB2513263C2664268D26B526DE26072772
:105544002F2758278127A927D227FB2724284C282F
:1055540075289E28C728F028182941296A299329E3
:10556400BC29E5290E2A372A602A892AB22ADB2A8D
:10557400042B2D2B562B7F2BA82BD12BFB2B242C30
:105584004D2C762C9F2CC92CF22C1B2D442D6E2DCA
:10559400972DC02DE92D132E3C2E652E8F2EB82E5F
:1055A400E12E0B2F342F5E2F872FB12FDA2F0330EC
:1055B4002D3056308030A930D330FC302631503174
:1055C4007931A331CC31F6311F32493273329C32F6
:1055D400C632F032193343336D339633C033EA3372
:1055E40013343D3467349134BA34E4340E353835E9
:1055F40061358B35B535DF35093632365C3686365E
:10560400B036DA3604372E3757378137AB37D537CC
:10561400FF37293853387D38A738D138FB38253936
:105624004F397939A339CD39F739213A4B3A753A9B
:105634009F3AC93AF33A1D3B473B713B9B3BC53B01
:10564400EF3B193C433C6D3C973CC23CEC3C163D63
:10565400403D6A3D943DBE3DE93D133E3D3E673EBF
:10566400913EBB3EE63E103F3A3F643F8E3FB93F1A
:10567400E33F0D40374062408C40B640E0400B4170
:1056840035415F418A41B441DE41084233425D42C3
:105694008742B242DC42064331435B438543B04315
:1056A400DA4305442F4459448444AE44D844034562
:1056B4002D4558458245AD45D74501462C465646AD
:1056C4008146AB46D64600472A4755477F47AA47F7
:1056D400D447FF47294854487E48A948D348FE4840
:1056E400284953497D49A849D249FD49274A524A84
:1056F4007C4AA74AD24AFC4A274B514B7C4BA64BC7
:10570400D14BFB4B264C514C7B4CA64CD04CFB4C08
:10571400264D504D7B4DA54DD04DFA4D254E504E46
:105724007A4EA54ECF4EFA4E254F4F4F7A4FA54F86
:10573400CF4FFA4F24504F507A50A450CF50FA50C4
:1057440024514F517951A451CF51F95124524F5200
:105754007952A452CF52F95224534E537953A4533D
:10576400CE53F95324544E547954A454CE54F9547A
:1057740024554E557955A455CE55F95524564E56B3
:105784007956A356CE56F95623574E577957A357F1
:10579400CE57F95723584E587958A358CE58F8582D
:1057A4009628BD28E4280B29322959298029A729BC
:1057B400CD29F4291B2A422A692A8F2AB62ADD2AEE
:1057C400042B2B2B512B782B9F2BC62BED2B132C1F
:1057D4003A2C612C882CAE2CD52CFB2C222D492D57
:1057E4006F2D962DBC2DE32D0A2E302E572E7D2E97
:1057F400A42ECA2EF12E172F3E2F642F8A2FB12FDD
:10580400D72FFE2F24304A3071309730BE30E43029
:105814000A31313157317E31A431CA31F031173276
:105824003D3263328932AF32D632FC3222334833CE
:105834006E339433BA33E03306342C34533479342E
:105844009F34C534EB34113537355D358335A9358F
:10585400CF35F5351B36413667368C36B236D836F9
:10586400FE36243749376F379537BB37E13706386B
:105874002C38523878389E38C338E9380F393539DE
:105884005A398039A539CB39F139163A3C3A613A5B
:10589400873AAD3AD23AF83A1D3B433B683B8E3BDC
:1058A400B33BD93BFE3B243C493C6F3C943CBA3C63
:1058B400DF3C053D2A3D503D753D9A3DBF3DE53DEC
:1058C4000A3E2F3E543E793E9F3EC43EE93E0E3F83
:1058D400333F593F7E3FA33FC83FED3F134038401D
:1058E4005D408240A740CD40F24017413C416141B8
:1058F4008641AB41D041F5411A423F42644289425C
:10590400AE42D342F7421C43414366438B43B04308
:10591400D543FA431F44444468448D44B244D744B5
:10592400FB442045444569458E45B345D745FC4570
:10593400214646466A468F46B346D846FD46214729
:1059440046476A478F47B347D847FC4721484548ED
:105954006A488E48B348D748FC48204945496949B4
:105964008E49B249D649FA491F4A434A674A8B4A83
:10597400B04AD44AF94A1D4B414B654B8A4BAE4B56
:10598400D24BF64B1A4C3F4C634C874CAB4CCF4C30
:10599400F34C174D3B4D5F4D834DA74DCB4DEF4D14
:1059A400134E374E5B4E7F4EA34EC74EEB4E0F4FFA
:1059B400334F574F7B4F9F4FC24FE64F0A502E50E5
:1059C400525076509A50BE50E250055129514C51D4
:1059D40070519451B851DB51FF51235247526A52CE
:1059E4008E52B152D552F9521C53405363538753CC
:1059F400AB53CE53F253155439545C548054A354CE
:105A0400C754EA540D553155545578559B55BE55D8
:105A1400E255055629564C566F569256B656D956E7
:105A2400FC561F57435766578A57AD57D057F357FD
:105A340017583A585D588058A358C658E9580C5915
:105A44002F59525976599959BC5900000000000049
:105A54000000000000000000000000000000000042
:105A64000000010203040000000000000000010225
:105A740003040607080901020203040506070809CE
:105A84000A0B0C0D0E0F1010010202030405060789
:0C5A940008090A0B0C0D0E0F101000008A
:085AA000ACA6FF7F010000002D
:045AA80031010008C0
:045AAC000D010008E0
:105AB00033335340C50F0008890F00088D0F0008CD
:105AC000910F00081A030000000000000000000011
